:10000000F01F0010F102000055030000550300002E
:1000100055030000550300005503000000000000D8
:100020000000000000000000000000005503000078
:1000300055030000000000005503000055030000B8
:100040005503000055030000550300005503000050
:100050005503000055030000550300005503000040
:100060005503000055030000550300005503000030
:100070005503000055030000550300005503000020
:100080005503000055030000550300005503000010
:100090005503000055030000550300005503000000
:1000A00055030000550300005503000055030000F0
:1000B00055030000550300005503000055030000E0
:1000C00055030000550300005503000055030000D0
:1000D00055030000550300005503000055030000C0
:1000E00055030000550300005503000055030000B0
:1000F00055030000550300005503000055030000A0
:10010000550300005503000055030000550300008F
:10011000550300005503000055030000550300007F
:08012000550300005503000027
:1001280080B500AF00F016F9084B1B68084AA2FB1F
:1001380003239B09074A1360044B1B68064AA2FB6A
:1001480003239B0C054A136000BF80BD0800001004
:10015800D34D62100000001083DE1B430400001022
:1001680010B5044614F1FF3400D210BD4FF47A7074
:1001780000F001F8F6E7084A084910F1FF3000D20C
:1001880070470B68DB08136000BF00BF1368013BB2
:100198001360002BF8D1F0E70C00001004000010E9
:1001A80080B400AF044B03F5004301221A6000BF7E
:1001B800BD4680BC704700BF0000035080B400AF4C
:1001C800074B03F57F533C331B68054923F00102B5
:1001D80001F57F533C331A6000BFBD4680BC7047B1
:1001E8000000035080B400AF044B03F57F533C3349
:1001F80001221A6000BFBD4680BC70470000035052
:1002080080B500AF074B03F57F533C331B6803F001
:100218000103002B02D0FFF7D1FF01E0FFF7E2FF57
:1002280000BF80BD0000035080B400AF0A4BD3F874
:100238008030094A43F40073C2F88030074B00222B
:100248001A67064B4722DA60044B02225A6000BF45
:10025800BD4680BC704700BF00800440004001409C
:1002680080B400AF064B02225A60054B4722DA6081
:10027800034B01225A6000BFBD4680BC704700BFD7
:100288000040014080B582B000AF7860FFF7E8FF1A
:1002980000BF064B9A687B689A42FAD3034B002248
:1002A8005A6000BF0837BD4680BD00BF004001400E
:1002B80080B582B000AFFFF773FFFFF7B5FF4FF4CB
:1002C8007A737B607B68C3F51C5310333B60FFF780
:1002D80075FF7868FFF7D6FFFFF784FF3868FFF7E8
:1002E800D1FFFFF76BFFF4E780B582B000AF124B88
:1002F8007B60124B3B6007E07A68131D7B603B68AC
:10030800191D396012681A603B680D4A9342F3D38D
:100318000C4B3B6004E03B681A1D3A6000221A60EF
:100328003B68094A9342F6D300F046F9FFF7C0FF4D
:1003380000BF0837BD4680BD8007000000000010E0
:100348000C0000100C0000101000001080B400AF6A
:10035800FEE700BF80B483B000AF00237B60834B0F
:100368005B6A5B0903F00F030F2B53D801A252F805
:1003780023F000BFBD030000C3030000C903000051
:10038800CF030000D5030000DB030000E1030000F9
:10039800E7030000ED030000F3030000F903000089
:1003A800FF030000050400000B0400001104000016
:1003B800170400006E4B7B602CE06E4B7B6029E0DD
:1003C8006D4B7B6026E06D4B7B6023E06C4B7B6064
:1003D80020E06C4B7B601DE06B4B7B601AE06B4B45
:1003E8007B6017E06A4B7B6014E06A4B7B6011E02E
:1003F800694B7B600EE0694B7B600BE0684B7B6070
:1004080008E0684B7B6005E0674B7B6002E0674B68
:100418007B6000BF554B5B6A5B0003F03E03023311
:100428007A68B2FBF3F37B60504B1B6F03F0030356
:10043800032B00F28E8001A252F823F0550400002D
:100448005D040000A3040000AB040000584B594AA7
:100458001A607EE0454B1B6C03F00303032B75D831
:1004680001A252F823F000BF8104000089040000B3
:1004780091040000990400004D4B4E4A1A600BE0AD
:100488004B4B4C4A1A6007E0494A7B68136003E00B
:10049800474B00221A6000BF58E0454A7B6813604A
:1004A80057E0324B1B6C03F00303032B50D801A217
:1004B80052F823F0CD040000F704000021050000E5
:1004C8004B050000294B9B6803F4C073002B03D035
:1004D800374B384A1A6038E0244B9B6803F01F03F7
:1004E8000133344A02FB03F3314A13602DE01F4BFA
:1004F8009B6803F4C073002B03D02D4B2D4A1A6060
:1005080023E01A4B9B6803F01F030133294A02FBBF
:1005180003F3274A136018E0144B9B6803F4C07375
:10052800002B03D0224A7B6813600EE00F4B9B68B8
:1005380003F01F0301337A6802FB03F31C4A1360BC
:1005480003E01B4B00221A6000BF01E000BF00E07F
:1005580000BF064B9B6F164A1268B2FBF3F3144AAE
:10056800136000BF0C37BD4680BC70470080044054
:10057800801A060020A1070000350C00E0C8100012
:10058800C05C1500006A180040771B0080841E00BC
:10059800C0912100009F240040AC2700E0322900D0
:1005A80020402C00604D2F0000D4300040E1330083
:1005B80008000010001BB70080B483B000AF454BA3
:1005C800D3F83832434A23F02003C2F83832414B7B
:1005D80000221A6200237B6003E000BF7B680133BE
:1005E8007B607B68C72BF8D93A4B01221A64394BD8
:1005F80001225A64374B00225A64364B01225A644E
:1006080000BF344B5B6C03F00103002BF9D0314B76
:1006180025229A602F4BD3F838322E4A23F08003D4
:10062800C2F8383200BF2B4BDB6803F00103002B04
:10063800F9D0284B03221A67264B01225A67254B0B
:1006480000225A67234B01225A6700BF214B5B6F78
:1006580003F00103002BF9D01E4BD3F838321D4AA2
:1006680023F48063C2F838321A4BD3F83832194A67
:1006780023F48073C2F83832164B01229A64154B62
:100688000122DA64134B0022DA64124B0122DA6485
:1006980000BF104BDB6C03F00103002BF9D00D4BAE
:1006A80003221A6100BF0B4B5B6903F00103002BA7
:1006B800F9D0084B0022C3F8C020064B01229A67E4
:1006C800044B054AC3F8802000BF0C37BD4680BCE8
:1006D800704700BF008004405F00010080B483B011
:1006E80000AF0346FB7100BF064B5B6903F02003B4
:1006F800002BF9D0034AFB79136000BF0C37BD46C5
:1007080080BC70470080004080B400AF174B0122C6
:10071800C3F8A420154B0122C3F8A820144B0122CA
:10072800C3F89820124BD3F88030114A43F4805311
:10073800C2F880300F4B8322DA600E4B27221A60F2
:100748000C4B00225A600B4B9B680A4A43F0070384
:100758009360084B10229A62064BDB68054A23F027
:100768008003D36000BFBD4680BC70470040044092
:080778000080044000800040F5
:0C078000401901004800000000A24A04DB
:04000003000002F106
:00000001FF
