:10000000F01F0010C50500002906000029060000A9
:100010002906000029060000290600000000000053
:1000200000000000000000000000000029060000A1
:100030002906000000000000290600002906000033
:1000400029060000290600002906000029060000F4
:1000500029060000290600002906000029060000E4
:1000600029060000290600002906000029060000D4
:1000700029060000290600002906000029060000C4
:1000800029060000290600002906000029060000B4
:1000900029060000290600002906000029060000A4
:1000A0002906000029060000290600002906000094
:1000B0002906000029060000290600002906000084
:1000C0002906000029060000290600002906000074
:1000D0002906000029060000290600002906000064
:1000E00089030000290600002906000029060000F7
:1000F0002906000029060000290600002906000044
:100100002906000029060000290600002906000033
:100110002906000029060000290600002906000023
:08012000290600002906000079
:1001280080B500AF00F080FA084B1B68084AA2FBB4
:1001380003239B09074A1360044B1B68064AA2FB6A
:1001480003239B0C054A136000BF80BD0800001004
:10015800D34D62100000001083DE1B430400001022
:1001680010B5044614F1FF3400D210BD4FF47A7074
:1001780000F001F8F6E7084A084910F1FF3000D20C
:1001880070470B68DB08136000BF00BF1368013BB2
:100198001360002BF8D1F0E70C00001004000010E9
:1001A80080B400AF0B4B03F500431B68094943F0CB
:1001B8000F0201F500431A60074B03F500431B6863
:1001C800054943F0F00201F500431A6000BFBD463F
:1001D80080BC7047000003500000025080B483B018
:1001E80000AF0E4B03F57F533C331B68DB4303F032
:1001F8000F037B600A4B03F57F533C331B68DB43DB
:1002080003F0F0033B603B68DAB27B68DBB2134370
:10021800DBB218460C37BD4680BC7047000003505F
:100228000000025080B485B000AF0346FB71FB7933
:1002380003F00F03FB60FB7903F0F003BB600E4B88
:1002480003F57F533C331A680B49FB685A4001F5A4
:100258007F533C331A60094B03F57F533C331A68CC
:100268000649BB685A4001F57F533C331A6000BF0A
:100278001437BD4680BC7047000003500000025090
:1002880080B485B000AF0346FB71FB79DB4303F014
:100298000F03FB60FB79DB4303F0F003BB60104BFB
:1002A80003F57F533C331B6823F00F020C49FB68AE
:1002B8001A4301F57F533C331A600A4B03F57F5309
:1002C8003C331B6823F0F0020649BB681A4301F56A
:1002D8007F533C331A6000BF1437BD4680BC70475B
:1002E800000003500000025080B483B000AF034602
:1002F800FB71FB7903F01F03012202FA03F1054A9F
:1003080097F907305B0942F8231000BF0C37BD4648
:1003180080BC704700E100E080B500AF164BD3F811
:100328008030154A43F02003C2F88030134B1B6B12
:10033800124A43F001031363104B5B6B0F4A43F0FF
:10034800010353630C4B02225A604FF080434FF471
:10035800B4721A614FF080434FF4B4725A614FF08F
:10036800804340221A604FF0804308221A602820F8
:10037800FFF7BAFF00BF80BD008004400040044082
:1003880080B582B000AF0023FB714FF080435B68FB
:10039800BB71BB79582B00F2E78001A252F823F019
:1003A800710500007105000071050000710500006D
:1003B800710500007105000071050000710500005D
:1003C8000D050000710500007105000071050000B1
:1003D800710500007105000071050000710500003D
:1003E8001F0500007105000071050000710500007F
:1003F800710500007105000071050000710500001D
:10040800310500007105000071050000710500004C
:1004180071050000710500007105000071050000FC
:1004280071050000710500007105000071050000EC
:1004380071050000710500007105000071050000DC
:100448003B05000071050000710500007105000002
:1004580071050000710500007105000071050000BC
:1004680071050000710500007105000071050000AC
:10047800710500007105000071050000710500009C
:10048800710500007105000071050000710500008C
:10049800710500007105000071050000710500007C
:1004A8004505000071050000710500007105000098
:1004B800710500007105000071050000710500005C
:1004C800710500007105000071050000710500004C
:1004D800710500007105000071050000710500003C
:1004E800710500007105000071050000710500002C
:1004F800710500007105000071050000710500001C
:100508004F0500004FF0804390229A604FF08043DF
:1005180020229A6129E04FF0804391229A604FF09F
:10052800804320229A6120E04FF0804300229A60A5
:100538001BE04FF0804320221A6016E04FF0804302
:1005480004229A6111E04FF0804310221A604FF0A4
:1005580080439B68FB71FB791846FFF791FE4FF0CB
:10056800804320221A6000E000BF4FF08043082239
:100578009A6100BF0837BD4680BD80B400AF4FF018
:10058800804320221A6000BFBD4680BC704780B4FB
:1005980000AF00BF4FF080431B6803F00803002B37
:1005A800F8D000BFBD4680BC704780B500AFFFF7EC
:1005B800F7FDFFF7B1FEFFF7E0FFFEE780B582B079
:1005C80000AF124B7B60124B3B6007E07A68131D4B
:1005D8007B603B68191D396012681A603B680D4AD8
:1005E8009342F3D30C4B3B6004E03B681A1D3A601E
:1005F80000221A603B68094A9342F6D300F046F994
:10060800FFF7D3FF00BF0837BD4680BD540A00007E
:10061800000000100C0000100C000010100000106A
:1006280080B400AFFEE700BF80B483B000AF002302
:100638007B60834B5B6A5B0903F00F030F2B53D876
:1006480001A252F823F000BF9106000097060000AF
:100658009D060000A3060000A9060000AF060000E2
:10066800B5060000BB060000C1060000C706000072
:10067800CD060000D3060000D9060000DF06000002
:10068800E5060000EB0600006E4B7B602CE06E4B2D
:100698007B6029E06D4B7B6026E06D4B7B6023E03F
:1006A8006C4B7B6020E06C4B7B601DE06B4B7B6090
:1006B8001AE06B4B7B6017E06A4B7B6014E06A4B77
:1006C8007B6011E0694B7B600EE0694B7B600BE05F
:1006D800684B7B6008E0684B7B6005E0674B7B609C
:1006E80002E0674B7B6000BF554B5B6A5B0003F021
:1006F8003E0302337A68B2FBF3F37B60504B1B6F07
:1007080003F00303032B00F28E8001A252F823F0BA
:100718002907000031070000770700007F07000065
:10072800584B594A1A607EE0454B1B6C03F0030393
:10073800032B75D801A252F823F000BF550700001B
:100748005D070000650700006D0700004D4B4E4A2D
:100758001A600BE04B4B4C4A1A6007E0494A7B6829
:10076800136003E0474B00221A6000BF58E0454A77
:100778007B68136057E0324B1B6C03F00303032BB9
:1007880050D801A252F823F0A1070000CB070000BF
:10079800F50700001F080000294B9B6803F4C0738D
:1007A800002B03D0374B384A1A6038E0244B9B683B
:1007B80003F01F030133344A02FB03F3314A136089
:1007C8002DE01F4B9B6803F4C073002B03D02D4B07
:1007D8002D4A1A6023E01A4B9B6803F01F0301336C
:1007E800294A02FB03F3274A136018E0144B9B685D
:1007F80003F4C073002B03D0224A7B6813600EE019
:100808000F4B9B6803F01F0301337A6802FB03F365
:100818001C4A136003E01B4B00221A6000BF01E072
:1008280000BF00E000BF064B9B6F164A1268B2FB80
:10083800F3F3144A136000BF0C37BD4680BC704701
:1008480000800440801A060020A1070000350C0033
:10085800E0C81000C05C1500006A180040771B0053
:1008680080841E00C0912100009F240040AC270016
:10087800E032290020402C00604D2F0000D43000C9
:1008880040E1330008000010001BB70080B483B0BB
:1008980000AF454BD3F83832434A23F02003C2F85F
:1008A8003832414B00221A6200237B6003E000BF0C
:1008B8007B6801337B607B68C72BF8D93A4B0122F0
:1008C8001A64394B01225A64374B00225A64364B5A
:1008D80001225A6400BF344B5B6C03F00103002B08
:1008E800F9D0314B25229A602F4BD3F838322E4A53
:1008F80023F08003C2F8383200BF2B4BDB6803F0CB
:100908000103002BF9D0284B03221A67264B01223A
:100918005A67254B00225A67234B01225A6700BFAA
:10092800214B5B6F03F00103002BF9D01E4BD3F86A
:1009380038321D4A23F48063C2F838321A4BD3F890
:100948003832194A23F48073C2F83832164B012220
:100958009A64154B0122DA64134B0022DA64124BB5
:100968000122DA6400BF104BDB6C03F00103002B9B
:10097800F9D00D4B03221A6100BF0B4B5B6903F0E2
:100988000103002BF9D0084B0022C3F8C020064B06
:1009980001229A67044B054AC3F8802000BF0C3730
:1009A800BD4680BC704700BF008004405F00010066
:1009B80080B483B000AF0346FB7100BF064B5B6990
:1009C80003F02003002BF9D0034AFB79136000BF22
:1009D8000C37BD4680BC70470080004080B400AF33
:1009E800174B0122C3F8A420154B0122C3F8A820F5
:1009F800144B0122C3F89820124BD3F88030114AC7
:100A080043F48053C2F880300F4B8322DA600E4BD8
:100A180027221A600C4B00225A600B4B9B680A4A2B
:100A280043F007039360084B10229A62064BDB6879
:100A3800054A23F08003D36000BFBD4680BC7047E1
:0C0A48000040044000800440008000409A
:0C0A5400401901004800000000A24A0404
:04000003000005C52F
:00000001FF
