:10000000F01F0010050400006904000069040000EE
:100010006904000069040000690400000000000099
:100020000000000000000000000000006904000063
:100030006904000000000000690400006904000079
:1000400069040000690400006904000069040000FC
:1000500069040000690400006904000069040000EC
:1000600069040000690400006904000069040000DC
:1000700069040000690400006904000069040000CC
:1000800069040000690400006904000069040000BC
:1000900069040000690400006904000069040000AC
:1000A000690400006904000069040000690400009C
:1000B000690400006904000069040000690400008C
:1000C000690400006904000069040000690400007C
:1000D000690400006904000069040000690400006C
:1000E0006904000069040000690400006103000065
:1000F000690400006904000069040000690400004C
:10010000690400006904000069040000690400003B
:10011000690400006904000069040000690400002B
:080120006904000069040000FD
:1001280080B500AF00F0A0F9084B1B68084AA2FB95
:1001380003239B09074A1360044B1B68064AA2FB6A
:1001480003239B0C054A136000BF80BD0800001004
:10015800D34D62100000001083DE1B430400001022
:1001680010B5044604B910BD4FF47A7000F002F8D7
:10017800013CF7E730B50025094B1968094BC90858
:100188001C6810F1FF3002D205B11C6030BD0A4670
:10019800012500BF00BF013A1446002AF9D1F0E753
:1001A800040000100C00001080B483B000AF0346B8
:1001B800FB71084997F907305B09FA7902F01F02C9
:1001C800012000FA02F241F8232000BF0C37BD4697
:1001D80080BC704700E100E080B400AF0649064BE0
:1001E80003F500431B6843F0400201F500431A6021
:1001F80000BFBD4680BC70470000015080B400AF0E
:100208000749074B03F57F533C331B6823F0400233
:1002180001F57F533C331A6000BFBD4680BC704770
:100228000000015080B400AF0749074B03F57F5326
:100238003C331B6843F0400201F57F533C331A609E
:1002480000BFBD4680BC70470000015080B500AFBC
:10025800074B03F57F533C331B6803F04003002B27
:1002680002D0FFF7CBFF01E0FFF7DCFF00BF80BD46
:100278000000015080B500AF1A4A1A4BD3F88030FD
:1002880043F40073C2F88030174A174B5B6943F098
:1002980001035361144A144B5B6923F400735361DF
:1002A800114B4FF47A729A610F4A0F4B9B69C3F551
:1002B8001C53103353620C4A0B4B1B6843F0010369
:1002C8001360094A084B1B6843F008031360064B88
:1002D8004822DA602B20FFF767FF034B01225A60A0
:1002E80000BF80BD008004400040014080B483B05E
:1002F80000AF78600B4B02225A600A4B4822DA6042
:10030800084A084B1B6843F001031360054A7B68E1
:100318009361044B01225A6000BF0C37BD4680BC74
:10032800704700BF0040014080B582B000AF7860E0
:100338007868FFF7DBFF00BF064B1B6803F001037B
:10034800002BF9D0034B00225A6000BF0837BD4686
:1003580080BD00BF0040014080B500AF214B1B6845
:1003680003F00103002B1AD0FFF75CFF1D4B02229C
:100378005A601C4A1B4B5B6923F001035361194AFD
:10038800184B5B6943F400735361164A154B1B689D
:1003980043F001031360134B01225A601FE0114B15
:1003A8001B6803F00803002B19D0FFF727FF0D4B3C
:1003B80002225A600B4A0B4B5B6943F001035361FD
:1003C800084A084B5B6923F400735361054A054BDF
:1003D8001B6843F008031360024B01225A6000BFF8
:1003E80080BD00BF0040014080B500AFFFF7F4FEBC
:1003F800FFF740FFFFF702FF30BFFDE780B582B08F
:1004080000AF124B7B60124B3B6007E03B681A1D44
:100418003A607A68111D796012681A603B680D4A63
:100428009342F3D30C4B3B6004E03B681A1D3A60DF
:1004380000221A603B68094A9342F6D300F046F955
:10044800FFF7D2FF00BF0837BD4680BD9408000003
:10045800000000100C0000100C000010100000102C
:1004680080B400AFFEE700BF80B483B000AF0023C4
:100478007B60834B5B6A5B0903F00F030F2B53D838
:1004880001A252F823F000BFD1040000D7040000F5
:10049800DD040000E3040000E9040000EF040000AC
:1004A800F5040000FB04000001050000070500003A
:1004B8000D05000013050000190500001F050000C8
:1004C800250500002B0500006E4B7B602CE06E4B71
:1004D8007B6029E06D4B7B6026E06D4B7B6023E001
:1004E8006C4B7B6020E06C4B7B601DE06B4B7B6052
:1004F8001AE06B4B7B6017E06A4B7B6014E06A4B39
:100508007B6011E0694B7B600EE0694B7B600BE020
:10051800684B7B6008E0684B7B6005E0674B7B605D
:1005280002E0674B7B6000BF554B5B6A5B0003F0E2
:100538003E0302337A68B2FBF3F37B60504B1B6FC8
:1005480003F00303032B00F28E8001A252F823F07C
:100558006905000071050000B7050000BF0500002F
:10056800584B594A1A607EE0454B1B6C03F0030355
:10057800032B75D801A252F823F000BF950500009F
:100588009D050000A5050000AD0500004D4B4E4A35
:100598001A600BE04B4B4C4A1A6007E0494A7B68EB
:1005A800136003E0474B00221A6000BF58E0454A39
:1005B8007B68136057E0324B1B6C03F00303032B7B
:1005C80050D801A252F823F0E10500000B06000004
:1005D800350600005F060000294B9B6803F4C073D2
:1005E800002B03D0374B384A1A6038E0244B9B68FD
:1005F80003F01F030133344A02FB03F3314A13604B
:100608002DE01F4B9B6803F4C073002B03D02D4BC8
:100618002D4A1A6023E01A4B9B6803F01F0301332D
:10062800294A02FB03F3274A136018E0144B9B681E
:1006380003F4C073002B03D0224A7B6813600EE0DA
:100648000F4B9B6803F01F0301337A6802FB03F327
:100658001C4A136003E01B4B00221A6000BF01E034
:1006680000BF00E000BF064B9B6F164A1268B2FB42
:10067800F3F3144A136000BF0C37BD4680BC7047C3
:1006880000800440801A060020A1070000350C00F5
:10069800E0C81000C05C1500006A180040771B0015
:1006A80080841E00C0912100009F240040AC2700D8
:1006B800E032290020402C00604D2F0000D430008B
:1006C80040E1330008000010001BB70080B483B07D
:1006D80000AF454A444BD3F8383223F02003C2F820
:1006E8003832414B00221A6200237B6003E000BFCE
:1006F8007B6801337B607B68C72BF8D93A4B0122B2
:100708001A64394B01225A64374B00225A64364B1B
:1007180001225A6400BF344B5B6C03F00103002BC9
:10072800F9D0314B25229A602F4A2F4BD3F8383213
:1007380023F08003C2F8383200BF2B4BDB6803F08C
:100748000103002BF9D0284B03221A67264B0122FC
:100758005A67254B00225A67234B01225A6700BF6C
:10076800214B5B6F03F00103002BF9D01E4A1E4B8F
:10077800D3F8383223F48063C2F838321A4A1A4B55
:10078800D3F8383223F48073C2F83832164B01227A
:100798009A64154B0122DA64134B0022DA64124B77
:1007A8000122DA6400BF104BDB6C03F00103002B5D
:1007B800F9D00D4B03221A6100BF0B4B5B6903F0A4
:1007C8000103002BF9D0084B0022C3F8C020064BC8
:1007D80001229A67044B054AC3F8802000BF0C37F2
:1007E800BD4680BC704700BF008004405F00010028
:1007F80080B483B000AF0346FB7100BF064B5B6952
:1008080003F02003002BF9D0034AFB79136000BFE3
:100818000C37BD4680BC70470080004080B400AFF4
:10082800174B0122C3F8A420154B0122C3F8A820B6
:10083800144B0122C3F89820124A124BD3F8803087
:1008480043F48053C2F880300F4B8322DA600E4B9A
:1008580027221A600C4B00225A600B4A0A4B9B68ED
:1008680043F007039360084B10229A62064A064B2E
:10087800DB6823F08003D36000BFBD4680BC7047AF
:0C0888000040044000800440008000405C
:0C089400401901004800000000A24A04C6
:0400000300000405F0
:00000001FF
