:10000000F01F00103D020000A1020000A10200004C
:10001000A1020000A1020000A102000000000000F7
:10002000000000000000000000000000A10200002D
:10003000A102000000000000A1020000A1020000D7
:10004000A1020000A1020000A1020000A102000024
:10005000A1020000A1020000A1020000A102000014
:10006000A1020000A1020000A1020000A102000004
:10007000A1020000A1020000A1020000A1020000F4
:10008000A1020000A1020000A1020000A1020000E4
:10009000A1020000A1020000A1020000A1020000D4
:1000A000A1020000A1020000A1020000A1020000C4
:1000B000A1020000A1020000A1020000A1020000B4
:1000C000A1020000A1020000A1020000A1020000A4
:1000D000A1020000A1020000A1020000A102000094
:1000E000A1020000A1020000A1020000A102000084
:1000F000A1020000A1020000A1020000A102000074
:10010000A1020000A1020000A1020000A102000063
:10011000A1020000A1020000A1020000A102000053
:08012000A1020000A102000091
:1001280080B500AF00F0BCF8084B1B68084AA2FB7A
:1001380003239B09074A1360044B1B68064AA2FB6A
:1001480003239B0C054A136000BF80BD0800001004
:10015800D34D62100000001083DE1B430400001022
:1001680010B5044614F1FF3400D210BD4FF47A7074
:1001780000F001F8F6E7084A084910F1FF3000D20C
:1001880070470B68DB08136000BF00BF1368013BB2
:100198001360002BF8D1F0E70C00001004000010E9
:1001A800B0B586B000AF214B03F5004301221A60B9
:1001B8001F4B3C461D460FCD0FC42B681A462280A4
:1001C80002341B0C237000237B6100F043FA174BA9
:1001D80003F57F533C3301221A604FF4FA70FFF79E
:1001E800BFFF124B03F57F533C3300221A604FF4D4
:1001F800FA70FFF7B5FF09E03A467B6913441B78AC
:10020800184600F011FA7B6901337B613A467B6935
:1002180013441B78002BEFD10D2000F005FA0A20BB
:1002280000F002FA00237B61D1E700BF0000035011
:10023800CC06000080B582B000AF124B7B60124B39
:100248003B6007E03B681A1D3A607A68111D7960C7
:1002580012681A603B680D4A9342F3D30C4B3B601B
:1002680004E03B681A1D3A6000221A603B68094A9C
:100278009342F6D300F046F9FFF792FF00BF083724
:10028800BD4680BDDF060000000000100C00001015
:100298000C0000101000001080B400AFFEE700BF93
:1002A80080B483B000AF00237B60834B5B6A5B093B
:1002B80003F00F030F2B53D801A252F823F000BF0D
:1002C800090300000F030000150300001B030000D2
:1002D80021030000270300002D0300003303000062
:1002E800390300003F030000450300004B030000F2
:1002F80051030000570300005D0300006303000082
:100308006E4B7B602CE06E4B7B6029E06D4B7B6015
:1003180026E06D4B7B6023E06C4B7B6020E06C4BF0
:100328007B601DE06B4B7B601AE06B4B7B6017E0DA
:100338006A4B7B6014E06A4B7B6011E0694B7B6021
:100348000EE0694B7B600BE0684B7B6008E0684B14
:100358007B6005E0674B7B6002E0674B7B6000BF1A
:10036800554B5B6A5B0003F03E0302337A68B2FBCD
:10037800F3F37B60504B1B6F03F00303032B00F276
:100388008E8001A252F823F0A1030000A903000007
:10039800EF030000F7030000584B594A1A607EE04B
:1003A800454B1B6C03F00303032B75D801A252F8CD
:1003B80023F000BFCD030000D5030000DD030000DB
:1003C800E50300004D4B4E4A1A600BE04B4B4C4A7C
:1003D8001A6007E0494A7B68136003E0474B002234
:1003E8001A6000BF58E0454A7B68136057E0324BFB
:1003F8001B6C03F00303032B50D801A252F823F01F
:1004080019040000430400006D0400009704000074
:10041800294B9B6803F4C073002B03D0374B384A31
:100428001A6038E0244B9B6803F01F030133344AF9
:1004380002FB03F3314A13602DE01F4B9B6803F462
:10044800C073002B03D02D4B2D4A1A6023E01A4BA2
:100458009B6803F01F030133294A02FB03F3274A71
:10046800136018E0144B9B6803F4C073002B03D08F
:10047800224A7B6813600EE00F4B9B6803F01F0352
:1004880001337A6802FB03F31C4A136003E01B4B39
:1004980000221A6000BF01E000BF00E000BF064B69
:1004A8009B6F164A1268B2FBF3F3144A136000BF3D
:1004B8000C37BD4680BC704700800440801A060097
:1004C80020A1070000350C00E0C81000C05C150032
:1004D800006A180040771B0080841E00C09121002C
:1004E800009F240040AC2700E032290020402C0067
:1004F800604D2F0000D4300040E1330008000010A8
:10050800001BB70080B483B000AF454A444BD3F812
:10051800383223F02003C2F83832414B00221A62E5
:1005280000237B6003E000BF7B6801337B607B684E
:10053800C72BF8D93A4B01221A64394B01225A6465
:10054800374B00225A64364B01225A6400BF344BA1
:100558005B6C03F00103002BF9D0314B25229A6024
:100568002F4A2F4BD3F8383223F08003C2F83832A1
:1005780000BF2B4BDB6803F00103002BF9D0284B9D
:1005880003221A67264B01225A67254B00225A6715
:10059800234B01225A6700BF214B5B6F03F0010315
:1005A800002BF9D01E4A1E4BD3F8383223F480634F
:1005B800C2F838321A4A1A4BD3F8383223F4807307
:1005C800C2F83832164B01229A64154B0122DA64BC
:1005D800134B0022DA64124B0122DA6400BF104B7D
:1005E800DB6C03F00103002BF9D00D4B03221A61D9
:1005F80000BF0B4B5B6903F00103002BF9D0084BDC
:100608000022C3F8C020064B01229A67044B054A12
:10061800C3F8802000BF0C37BD4680BC704700BFC0
:10062800008004405F00010080B483B000AF03463F
:10063800FB7100BF064B5B6903F02003002BF9D068
:10064800034AFB79136000BF0C37BD4680BC704776
:100658000080004080B400AF174B0122C3F8A420EB
:10066800154B0122C3F8A820144B0122C3F8982087
:10067800124A124BD3F8803043F48053C2F88030CA
:100688000F4B8322DA600E4B27221A600C4B002294
:100698005A600B4A0A4B9B6843F007039360084B68
:1006A80010229A62064A064BDB6823F08003D36067
:1006B80000BFBD4680BC7047004004400080044035
:1006C8000080004048656C6C6F2066726F6D204C2E
:0706D80050433133343300BD
:0C06DF00401901004800000000A24A047D
:040000030000023DBA
:00000001FF
