:10000000F01F001031010000950100009501000073
:10001000950100009501000095010000000000001E
:10002000000000000000000000000000950100003A
:1000300095010000000000009501000095010000FE
:100040009501000095010000950100009501000058
:100050009501000095010000950100009501000048
:100060009501000095010000950100009501000038
:100070009501000095010000950100009501000028
:100080009501000095010000950100009501000018
:100090009501000095010000950100009501000008
:1000A00095010000950100009501000095010000F8
:1000B00095010000950100009501000095010000E8
:1000C00095010000950100009501000095010000D8
:1000D00095010000950100009501000095010000C8
:1000E00095010000950100009501000095010000B8
:1000F00095010000950100009501000095010000A8
:100100009501000095010000950100009501000097
:100110009501000095010000950100009501000087
:080120009501000095010000AB
:1001280080B400AFFEE7000080B582B000AF124B8C
:100138007B60124B3B6007E07A68131D7B603B686D
:10014800191D396012681A603B680D4A9342F3D34F
:100158000C4B3B6004E03B681A1D3A6000221A60B1
:100168003B68094A9342F6D300F046F9FFF7D8FFF7
:1001780000BF0837BD4680BD240500000000001000
:1001880004000010040000100400001080B400AF48
:10019800FEE700BF80B483B000AF00237B60834BD1
:1001A8005B6A5B0903F00F030F2B53D801A252F8C7
:1001B80023F000BFFD010000030200000902000057
:1001C8000F020000150200001B02000021020000BF
:1001D800270200002D02000033020000390200004F
:1001E8003F020000450200004B02000051020000DF
:1001F800570200006E4B7B602CE06E4B7B6029E061
:100208006D4B7B6026E06D4B7B6023E06C4B7B6025
:1002180020E06C4B7B601DE06B4B7B601AE06B4B06
:100228007B6017E06A4B7B6014E06A4B7B6011E0EF
:10023800694B7B600EE0694B7B600BE0684B7B6031
:1002480008E0684B7B6005E0674B7B6002E0674B2A
:100258007B6000BF554B5B6A5B0003F03E030233D3
:100268007A68B2FBF3F37B60504B1B6F03F0030318
:10027800032B00F28E8001A252F823F095020000B1
:100288009D020000E3020000EB020000584B594AAF
:100298001A607EE0454B1B6C03F00303032B75D8F3
:1002A80001A252F823F000BFC1020000C9020000F9
:1002B800D1020000D90200004D4B4E4A1A600BE0F3
:1002C8004B4B4C4A1A6007E0494A7B68136003E0CD
:1002D800474B00221A6000BF58E0454A7B6813600C
:1002E80057E0324B1B6C03F00303032B50D801A2D9
:1002F80052F823F00D0300003703000061030000EB
:100308008B030000294B9B6803F4C073002B03D0B8
:10031800374B384A1A6038E0244B9B6803F01F03B8
:100328000133344A02FB03F3314A13602DE01F4BBB
:100338009B6803F4C073002B03D02D4B2D4A1A6021
:1003480023E01A4B9B6803F01F030133294A02FB81
:1003580003F3274A136018E0144B9B6803F4C07337
:10036800002B03D0224A7B6813600EE00F4B9B687A
:1003780003F01F0301337A6802FB03F31C4A13607E
:1003880003E01B4B00221A6000BF01E000BF00E041
:1003980000BF064B9B6F164A1268B2FBF3F3144A70
:1003A800136000BF0C37BD4680BC70470080044016
:1003B800801A060020A1070000350C00E0C81000D4
:1003C800C05C1500006A180040771B0080841E007E
:1003D800C0912100009F240040AC2700E032290092
:1003E80020402C00604D2F0000D4300040E1330045
:1003F80000000010001BB70080B483B000AF454B6D
:10040800D3F83832434A23F02003C2F83832414B3C
:1004180000221A6200237B6003E000BF7B6801337F
:100428007B607B68C72BF8D93A4B01221A64394B99
:1004380001225A64374B00225A64364B01225A640F
:1004480000BF344B5B6C03F00103002BF9D0314B38
:1004580025229A602F4BD3F838322E4A23F0800396
:10046800C2F8383200BF2B4BDB6803F00103002BC6
:10047800F9D0284B03221A67264B01225A67254BCD
:1004880000225A67234B01225A6700BF214B5B6F3A
:1004980003F00103002BF9D01E4BD3F838321D4A64
:1004A80023F48063C2F838321A4BD3F83832194A29
:1004B80023F48073C2F83832164B01229A64154B24
:1004C8000122DA64134B0022DA64124B0122DA6447
:1004D80000BF104BDB6C03F00103002BF9D00D4B70
:1004E80003221A6100BF0B4B5B6903F00103002B69
:1004F800F9D0084B0022C3F8C020064B01229A67A6
:10050800044B054AC3F8802000BF0C37BD4680BCA9
:0C051800704700BF008004405F0001003D
:0405240000A24A04E3
:0400000300000131C7
:00000001FF
